:1000000032C1000061C100005FC100005DC100009D
:100010005BC1000059C1000057C1000055C100007C
:1000200053C1000051C100004FC100004DC100008C
:100030004BC1000049C1000047C1000045C100009C
:1000400043C1000041C100003FC100003DC10000AC
:100050003BC1000039C1000037C100000C94FC0A0C
:1000600033C100000C94A0090C9477092DC1000045
:100070002BC1000029C1000027C1000025C10000DC
:1000800023C1000021C100001FC100001DC10000EC
:100090001BC1000019C1000017C1000015C10000FC
:1000A00013C1000011C100000FC100000DC100000C
:1000B0000BC1000009C1000007C1000005C100001C
:1000C00003C1000001C10000FFC00000FDC000002E
:1000D000FBC00000F9C00000F7C00000F5C0000040
:1000E000F3C000009608990888088C089208D00888
:1000F0009D08A108A708AB08AF08B508B908BD0856
:10010000D008C308C708CB0800002100240027003E
:100110002A002D0030003300010100000401070116
:100120000A0100002200250028002B002E003100CB
:10013000340002010000050108010B01000020004D
:100140002300260029002C002F00320000010000AF
:10015000030106010901050505050705080808084A
:10016000020202020A0A080804040404010101014F
:10017000010101010303030303030303040707074A
:100180000C0C0C0C0C0C0C0C0202020206060606EF
:10019000060606060B0B0B0B0B0B0B0B01021020BC
:1001A00020080810204010204080020102010804AD
:1001B0000201010204081020408080402010080441
:1001C000020180040201804020100804020108049A
:1001D00002010102040810204080010204081020DE
:1001E000408000000A0B02090C0D0E0807030401F1
:1001F00000000000000000000000000000000000FF
:1002000000000000000000000000000000001211CB
:1002100010000000000000000000000000000000CE
:1002200000000000000000004E414E494E49545964
:10023000494E46CDCCCC3D0AD7233C17B7D13877B1
:10024000CC2B329595E6241FB14F0A0000204100C7
:1002500000C84200401C4620BCBE4CCA1B0E5AAE11
:10026000C59D7400561811241FBECFEFD1E2DEBF2A
:10027000CDBF00E00CBF12E0A0E0B2E0E4E7FBE39A
:1002800000E00BBF02C007900D92A839B107D9F763
:1002900027E0A8E9B2E001C01D92A537B207E1F757
:1002A00011E0C3E3D1E000E006C021970109802FEF
:1002B000FE010E946119C233D10780E00807A9F747
:1002C0000E94B00F0C94B81D9BCE0895CF93DF937E
:1002D0001F92CDB7DEB76983DC01ED91FC910280FE
:1002E000F381E02D41E050E0BE016F5F7F4F199533
:1002F0000F90DF91CF910895FC01818D928D08952B
:10030000FC018489958908952BE832E0FC01318352
:100310002083FB014089518962897389FC014283F2
:100320005383648375830895DC01ED91FC91008C07
:10033000F18DE02D1994CF93DF93FC01218D328D47
:100340002115310519F48FEF9FEF11C0EC01421711
:10035000530708F0A901888D0E94180C1816190679
:1003600094F7298D3A8D281B390B3A8F298FDF910D
:10037000CF9108950F931F93CF93DF931F92CDB723
:10038000DEB7FC01218D328D232B61F08C0141E021
:1003900050E0BE016F5F7F4F808D0E94180C1816D1
:1003A00019061CF08FEF9FEF08C0F801818D928D28
:1003B0000197928F818F898190E00F90DF91CF918B
:1003C0001F910F9108950F931F93CF93DF931F9267
:1003D000CDB7DEB7282F30E02C5F3F4F322F2227DA
:1003E0008901060F171F49830E94480B80EF0E9466
:1003F0007A0B812F0E947A0B802F0E947A0B498101
:10040000842F0E947A0B0E94460B81E00F90DF91AF
:10041000CF911F910F9108950F931F93CF93DF9367
:100420001F92CDB7DEB790E00496982F88278C01F5
:10043000060F171F0E94480B8FE00E947A0B812F36
:100440000E947A0B802F0E947A0B80E00E947A0B28
:1004500089830E94460B89810F90DF91CF911F9174
:100460000F910895BF92CF92DF92EF92FF920F9378
:100470001F93CF93DF9300D000D0CDB7DEB7FC0140
:10048000208D243009F05AC06A017B018C01B12C07
:1004900063E070E08B2DC0DF811103C0F801B08EE6
:1004A00006C08831D9F3B394F4E0BF12F1CFF8015C
:1004B000808D843009F442C096E0E4E0F2E0DE0191
:1004C000119601900D929A95E1F7F70193819F772C
:1004D0009C8394819D8395819E83B7016E5F7F4F3E
:1004E00090E0982F882744E050E0845F9B4F0E9463
:1004F000AB0BF801F08C4D2D60E170E08F2D63DFC8
:100500004C2D61E170E08F2D5EDFF801808D90E071
:10051000982F882746E050E0BE016F5F7F4F8A5FCB
:100520009B4F0E94AB0BF801128E118E20E8A601A2
:1005300062E0808D0E94D40B81E001C080E02696AD
:100540000FB6F894DEBF0FBECDBFDF91CF911F91E4
:100550000F91FF90EF90DF90CF90BF900895089596
:100560008CBD9DBD0895CF93C82F80E590E0F8DF46
:1005700060E170E08C2F0E94630E4FEF62E070E04C
:100580008C2FCF9120CFCF93DF93EC01888D8430D7
:1005900059F0E9DFE88DF0E0EE0FFF1FE856FD4F60
:1005A0001182108284E0888FDF91CF910895FF92AD
:1005B0000F931F93CF93DF931F92CDB7DEB7FC014C
:1005C000218D328D232BE1F0F08C80E590E0C8DFA7
:1005D00068E270E08F2D20DF082F10E069E270E004
:1005E0008F2D1ADF702F6627682B21E030E0AE01D7
:1005F0004F5F5F4F8F2D0E94730E898190E002C084
:100600008FEF9FEF0F90DF91CF911F910F91FF9090
:100610000895BF92CF92DF92EF92FF920F931F93B4
:10062000CF93DF93CDB7DEB728970FB6F894DEBF30
:100630000FBECDBF8C01F801818D928D892B49F0C1
:10064000D801ED91FC910680F781E02DC801199544
:10065000F2CFB08C80E590E083DFE12CF12C8B2D84
:100660000E944A0B6C01892B21F08B2D0E944A0BB2
:100670007C01EC14FD0499F71E141F045CF548E09E
:1006800050E0BE016F5F7F4FD80158968C910E9459
:10069000180C9C0118161906DCF489819A81AB812B
:1006A000BC81F801808B918BA28BB38B8D8190E004
:1006B000982F88272E81820F911D958B848B2F81F7
:1006C00030E0322F22278885280F311D328F218F6D
:1006D000C90102C080E090E028960FB6F894DEBF12
:1006E0000FBECDBFDF91CF911F910F91FF90EF9083
:1006F000DF90CF90BF9008957F928F929F92AF929C
:10070000BF92CF92DF92EF92FF920F931F93CF93FE
:10071000DF935C014B016A01FC0106891789708C2B
:1007200080E590E01DDFC0E0D0E0872DCBD77C01D5
:10073000892B19F0872DC6D7EC01CE15DF05A9F757
:10074000CC15DD0568F4C0E0D0E0872DBBD76C0187
:10075000892B19F0872DB6D7EC01CC15DD05A9F74B
:1007600064E270E0872D58DEE82EF12C65E270E03F
:10077000872D52DEFE2CEE24E82AE701C00FD11FA0
:100780009E013770E72CF12CC701880F991FAC012F
:1007900045555D4F7A01FA0180819181820F931F47
:1007A000A9014C0D5D1D4130584088F000E018E073
:1007B000021B130BA801B401CED7A601401B510B9D
:1007C000B401600F711FF7018081918102C0A60101
:1007D000B401C1D7CC0DDD1D4D2F64E270E0872D33
:1007E000F2DD4C2F65E270E0872DEDDDF5018689A5
:1007F00097898C0D9D1D978B868BC601DF91CF91BC
:100800001F910F91FF90EF90DF90CF90BF90AF902E
:100810009F908F907F900895CF93FC01C08D80E5CD
:1008200090E09EDE60E270E08C2F0E94630E62E03A
:1008300070E08C2FF1DD84FD12C062E070E08C2F3F
:10084000EBDD83FF08C048E162E070E08C2FBBDD88
:1008500080E090E00BC080E590E082DEE8CF40E1F0
:1008600062E070E08C2FAFDD81E090E0CF910895E1
:10087000EF92FF921F93CF93DF93EB017A01FC017C
:10088000178A168A108D8A81811109C08B81811186
:1008900006C08C81811103C08D818823F9F0E11499
:1008A000F104E1F080E590E05BDEBE016E5F7F4F1A
:1008B000812F90E0982F882744E050E0845F9B4F81
:1008C0004AD74F2D60E170E0812F7DDD4E2D61E133
:1008D00070E0812F78DD81E090E002C080E090E060
:1008E000DF91CF911F91FF90EF900895EF92FF92CB
:1008F0001F93CF93DF93FC01208D243011F080E013
:100900001FC07B01EC0110E080E590E029DE63E090
:1009100070E0812F81DD811102C0188F05C0883100
:10092000E1F31F5F143081F7888D843041F3FD8639
:10093000EC861A8E198E20E0A70162E035D781E09F
:10094000DF91CF911F91FF90EF9008954F925F92AA
:100950006F927F928F929F92AF92BF92CF92DF92CF
:10096000EF92FF920F931F93CF93DF93CDB7DEB734
:10097000EE970FB6F894DEBF0FBECDBF5C018B01C2
:100980004A018BE892E09A8389831C861B8648EE95
:1009900053E060E070E04D875E876F87788B25E6D7
:1009A00032E03A872987988F8F8B198E1A8E1B8E8B
:1009B0001C8E24E029A399AB88AB1AAA1BAA1CAAF7
:1009C0001DAA80915A0390915B03A0915C03B091A2
:1009D0005D038EA39FA3A8A7B9A78B839C83AD8338
:1009E000BE8318861F82F80120E080E090E06AE074
:1009F0003191332319F140ED430F4A3080F4689F61
:100A0000A001699F500D1124CA01C097830F911D49
:100A100037FD9A958F3F910559F350F32BC03E3225
:100A200049F5233039F1A2E3B0E0AC0FBD1FA20FAE
:100A3000B11D8C932F5F80E090E0DACF2330D1F4AA
:100A40008DABD501ED91FC910088F189E02D8BE80B
:100A500092E09DA38CA38AA99BA9ACA9BDA98EA352
:100A60009FA3A8A7B9A7A401BE016C5D7F4FC501D4
:100A7000199508C24B815C816D817E8180916203F2
:100A800090916303A0916403B091650348175907DF
:100A90006A077B0709F4F4C1A3D56F7077277C5FE1
:100AA000CE01099623DF813009F0E7C18BE892E09F
:100AB0009DA38CA38B819C81AD81BE818EA39FA3BE
:100AC000A8A7B9A745E350E0BE016C5D7F4FCE01FA
:100AD0000996CEDE892B19F400E010E063C180D5C1
:100AE00078876F837627672776277DA36CA342E0FC
:100AF00050E0BE016C5D7F4FCE010996FDDD81E0C7
:100B000090E09FAB8EAB42E050E0BE016A5C7F4F4D
:100B1000CE010996F1DD80E091E09FAB8EAB42E023
:100B200050E0BE016A5C7F4FCE010996E5DD1FAA49
:100B30001EAA42E050E0BE016A5C7F4FCE010996DA
:100B4000DBDD42E050E0BE016A5C7F4FCE010996DA
:100B5000D3DD42E050E0BE016A5C7F4FCE010996D2
:100B6000CBDD7801D7018C91882309F1F8017F0151
:100B70008191811115C06701C01AD10A1C141D048E
:100B800094F4C8AE41E050E0BE01685C7F4FCE01F6
:100B90000996B2DDA601B801CE010996ADDD03C00C
:100BA0008E3229F7E8CF87010F5F1F4FDBCF18AEDA
:100BB00041E050E0BE01685C7F4FCE0109969CDDAC
:100BC00000E011E01FAB0EAB42E050E0BE016A5CFA
:100BD0007F4FCE01099690DD1FAB0EAB42E050E097
:100BE000BE016A5C7F4FCE01099686DDCE01099673
:100BF00013DE892B09F470CF63E0E62EF12CF0D4DC
:100C00002B013C01CE01099604DD1816190694F05B
:100C1000E7D4DC01CB0184199509A609B709893805
:100C20009341A105B105C0F462E370E080E090E07B
:100C30009FD4E8CF4B815C816D817E81898D9A8DB7
:100C4000AB8DBC8D481759076A077B0741F48D8D22
:100C50009E8DC59721F406C02FEF3FEF9AC02EEF6F
:100C60003FEF97C08AA19BA10C970CF4A7C04CE062
:100C700050E0BE016C5D7F4FCE0109965CDB8EA11A
:100C800090E0982F88272FA1822B9BAF8AAF2CA1B1
:100C900030E0322F22274DA1242B4F815885421757
:100CA000530709F088C097FF86C08F709270892B18
:100CB00009F0E0C00AA510E0102F00278BA5082B33
:100CC0000115110509F4D3C0C12CD12C88A590E0E1
:100CD000982F882729A5822BC816D90608F471C039
:100CE000C12CD12C41E050E0BE01645C7F4FCE01AD
:100CF000099621DB8CAD982F907C09F095C081116D
:100D000088C08CAD8111EECF42E050E0BE01685C3E
:100D10007F4FCE0109960FDB42E050E0BE016A5CD6
:100D20007F4FCE01099607DBCE01099623DBCE016A
:100D3000099620DBCE0109961DDBCE0109961ADB50
:100D400042E050E0BE01665C7F4FCE010996F3DAC7
:100D500088AD99AD8115914009F06BC02EA93FA9CE
:100D60003227232732272130310509F062C08AADAE
:100D70009BAD8115944009F077C044E050E0BE017E
:100D80006E5C7F4FCE0109962DAF3EAFD4DA2DAD0C
:100D90003EAD8901B1E0EB1AF10821F02F3F3F4F42
:100DA00009F42DCFCE010996EEDB0130110509F4CF
:100DB00048CEC80167C02CEF3FEFEBCF2DEF3FEFE0
:100DC000E8CF41E050E0BE016A5C7F4FCE0109965A
:100DD000B2DA8EA9811113C08EA98111F2CFCE0192
:100DE0000996C8DACE010996C5DACE010996C2DAAB
:100DF000CE010996BFDAFFEFCF1ADF0A67CF8EA9BF
:100E00009FEF980F9EAB882339F3CE010996B2DA93
:100E1000F6CF8CAD9FEF980F9CAF882309F471CF6C
:100E2000CE010996A7DAF5CFCE010996A3DA1CAE5A
:100E300068CF612C712C8AAD9BAD982789279827A4
:100E40006816790638F4CE01099694DA8FEF681A9D
:100E5000780AF1CFAFEFCA1ADA0AC016D10609F044
:100E600041CF26EF3FEF95CF27EF3FEF92CF2AEF0D
:100E70003FEF8FCF2BEF3FEF8CCF80E090E002C0B1
:100E80008EEF9FEFEE960FB6F894DEBF0FBECDBF8C
:100E9000DF91CF911F910F91FF90EF90DF90CF9056
:100EA000BF90AF909F908F907F906F905F904F908A
:100EB0000895CF92DF92EF92FF920F931F93CF93FB
:100EC000DF936C017A018B01C0E0D0E0CE15DF0525
:100ED00089F0D8016D918D01D601ED91FC910190C1
:100EE000F081E02DC6011995892B11F47E0102C015
:100EF0002196ECCFC701DF91CF911F910F91FF9009
:100F0000EF90DF90CF900895FC01918D828D98171E
:100F100061F0828DDF01A80FB11D5D968C91928DDD
:100F20009F5F9F73928F90E008958FEF9FEF0895DA
:100F3000FC01918D828D981731F0828DE80FF11DA3
:100F4000858D90E008958FEF9FEF0895FC01918DBE
:100F5000228D892F90E0805C9F4F821B91098F73B7
:100F6000992708958BEB92E0F1DF21E0892B09F4BA
:100F700020E0822F0895FC01848DDF01A80FB11DB0
:100F8000A35ABF4F2C91848D90E001968F739927BF
:100F9000848FA689B7892C93A089B1898C918064AC
:100FA0008C93938D848D981306C00288F389E02D6D
:100FB00080818F7D80830895EF92FF920F931F931E
:100FC000CF93DF93EC0181E0888F9B8D8C8D9813FC
:100FD00005C0E889F989808185FD23C0F62E0B8D37
:100FE00010E00F5F1F4F0F731127E02E8C8DE8125A
:100FF0000BC00FB607FCFACFE889F989808185FF1D
:10100000F5CFCE01B8DFF2CF8B8DFE01E80FF11DD9
:10101000E35AFF4FF0820B8FEA89FB89808180625F
:1010200007C0EE89FF896083E889F989808180643F
:10103000808381E090E0DF91CF911F910F91FF902D
:10104000EF900895CF93DF93EC01888D8823C1F052
:10105000EA89FB89808185FD05C0A889B9898C91C1
:1010600086FD0EC00FB607FCF5CF808185FFF2CF5D
:10107000A889B9898C9185FFEDCFCE017CDFE8CFBF
:10108000DF91CF91089580E090E0892B19F06ADF1D
:10109000811125C080E090E0892B41F080E090E054
:1010A000892B21F00E94000081111CC080E090E09B
:1010B000892B41F080E090E0892B21F00E94000014
:1010C000811113C080E090E0892BA1F080E090E0D6
:1010D000892B81F00E94000081110AC008950E94AE
:1010E0000000D8CF0E940000E1CF0E940000EACFAC
:1010F0000C940000089590E0FC013197E231F10575
:1011000008F04EC08827EE58FF4F8F4F0C9461199E
:10111000809180008F7703C0809180008F7D8093C5
:101120008000089580918000877FF9CF84B58F7704
:1011300002C084B58F7D84BD08958091B0008F7703
:1011400003C08091B0008F7D8093B000089580919E
:1011500090008F7707C0809190008F7D03C08091B1
:101160009000877F8093900008958091A0008F77F2
:1011700007C08091A0008F7D03C08091A000877F71
:101180008093A0000895809120018F7707C08091FF
:1011900020018F7D03C080912001877F80932001F3
:1011A00008950E94851A4F925F926F927F92EF92FC
:1011B000FF920F931F93CF93DF93CDB7DEB7A19725
:1011C0000FB6F894DEBF0FBECDBF7C01FA01CB0194
:1011D00019A2223008F42AE08E010F5D1F4F422E23
:1011E000512C612C712CBF01A30192010E94871D1B
:1011F000F901CA01015011096A3014F4605D01C09F
:10120000695CD8016C93232B242B252B61F70115E6
:10121000110591F0F80101900020E9F73197AF0135
:10122000401B510BD701ED91FC910280F381E02D21
:10123000B801C701199502C080E090E0A1960FB6F1
:10124000F894DEBF0FBECDBFDF91CF911F910F91FC
:10125000FF90EF907F906F905F904F9008958F92E6
:101260009F92AF92BF92CF92DF92EF92FF920F9335
:101270001F93CF93DF937C01EB016C0182E0C80EDA
:10128000D11C4701E5E08E0E911C00E010E0F60154
:1012900041916F0150E060E070E02AE0CE0183DF11
:1012A0005C01E881F9810190F081E02D6EE2CE01D0
:1012B00019958A0D9B1D080F191FC814D90439F7F9
:1012C000F701458150E060E070E02AE0CE016BDF7D
:1012D000800F911FDF91CF911F910F91FF90EF90A1
:1012E000DF90CF90BF90AF909F908F9008951F9206
:1012F0000F920FB60F9211240BB60F922F933F93BC
:101300004F935F936F937F938F939F93AF93BF930D
:10131000EF93FF938BEB92E02EDEFF91EF91BF9165
:10132000AF919F918F917F916F915F914F913F917D
:101330002F910F900BBE0F900FBE0F901F9018951E
:101340001F920F920FB60F9211240BB60F922F938C
:101350008F939F93EF93FF93E091CB02F091CC0298
:101360008081E091D102F091D20282FD12C0908181
:101370008091D4028F5F8F732091D502821751F034
:10138000E091D402F0E0E554FD4F958F8093D402B4
:1013900001C08081FF91EF919F918F912F910F90CC
:1013A0000BBE0F900FBE0F901F901895CF93DF9339
:1013B000282F30E0F901EE51FE4F8491F901E456F7
:1013C000FE4FD491F901EA5AFE4FC491CC2389F023
:1013D000811191DEEC2FF0E0EE0FFF1FE45CFE4F79
:1013E000A591B491EC91ED2381E090E021F480E0AF
:1013F00002C080E090E0DF91CF9108951F93CF93DA
:10140000DF93282F30E0F901EE51FE4F8491F9016E
:10141000E456FE4FD491F901EA5AFE4FC491CC2311
:10142000C1F0162F811167DEEC2FF0E0EE0FFF1FE9
:10143000EE5DFE4FA591B4918FB7F894111105C0E0
:101440009C91ED2FE095E92302C0EC91ED2BEC93FC
:101450008FBFDF91CF911F910895CF93DF9390E0DD
:10146000FC01E456FE4F2491FC01EA5AFE4F8491A0
:10147000882361F190E0880F991FFC01E85FFE4F1F
:10148000C591D491FC01EE5DFE4FA591B49161111F
:1014900009C09FB7F8948881209582238883EC91B6
:1014A0002E230BC0623061F49FB7F8943881822FED
:1014B000809583238883EC912E2B2C939FBF06C0AD
:1014C0008FB7F894E8812E2B28838FBFDF91CF91BF
:1014D0000895863308F0865390917B00282F28705A
:1014E000977F922B90937B008770806480937C0021
:1014F00080917A00806480937A0080917A0086FDE2
:10150000FCCF809178002091790090E0922B089593
:101510008230910538F0880F991F880F991F059721
:101520000197F1F708953FB7F8948091A702909141
:10153000A802A091A902B091AA0226B5A89B05C055
:101540002F3F19F00196A11DB11D3FBFBA2FA92F42
:10155000982F8827820F911DA11DB11DBC01CD01BF
:1015600042E0660F771F881F991F4A95D1F70895AB
:101570008F929F92AF92BF92CF92DF92EF92FF92A3
:101580006B017C01D0DF4B015C01C114D104E1048B
:10159000F104E9F0C8DFDC01CB0188199909AA0937
:1015A000BB09883E9340A105B10578F321E0C21A3A
:1015B000D108E108F10888EE880E83E0981EA11C8E
:1015C000B11CC114D104E104F10421F7DECFFF9076
:1015D000EF90DF90CF90BF90AF909F908F90089545
:1015E0002FB7F8946091A3027091A4028091A50294
:1015F0009091A6022FBF08951F920F920FB60F92DF
:1016000011242F933F938F939F93AF93BF93809118
:10161000A3029091A402A091A502B091A6023091DC
:10162000A20223E0230F2D3720F40196A11DB11D46
:1016300005C026E8230F0296A11DB11D2093A2022A
:101640008093A3029093A402A093A502B093A60254
:101650008091A7029091A802A091A902B091AA023C
:101660000196A11DB11D8093A7029093A802A0939B
:10167000A902B093AA02BF91AF919F918F913F9120
:101680002F910F900FBE0F901F9018952C9A0895D0
:101690002C9808951F93CF93DF93182F66E270E084
:1016A0000E940C02C82FD0E067E270E0812F0E94F8
:1016B0000C02DC2FCC279E01282BC901DF91CF9192
:1016C0001F9108951F93CF93DF93182F60E270E06E
:1016D0000E940C02C82FD0E061E270E0812F0E94CE
:1016E0000C02DC2FCC279E01282BC901DF91CF9162
:1016F0001F9108958EBD00000DB407FEFDCF8EB57D
:101700000895CF92DF92EF92FF920F931F93CF93A2
:10171000DF93EC017A018B016C01C40ED51ECC1550
:10172000DD0579F0B5DF8FE0E5DF8D2FE3DF8C2F6E
:10173000E1DF219680E0DEDFF80181938F01A6DFF3
:10174000EECFC701DF91CF911F910F91FF90EF90E6
:10175000DF90CF900895CF92DF92EF92FF920F9398
:101760001F93CF93DF93EC017A018B016C01C40EC0
:10177000D51ECC15DD0571F08BDF80EFBBDF8D2F23
:10178000B9DF8C2FB7DF2196F80181918F01B2DF8D
:101790007DDFEFCFC701DF91CF911F910F91FF90B8
:1017A000EF90DF90CF900895FF920F931F93CF9308
:1017B000DF931F921F92CDB7DEB7F82E8A012A83DE
:1017C00069830E94B30280E590E00E94B0022A8102
:1017D0006981462F422B60E070E08F2D0E94E3016B
:1017E0000115110551F40091A0021091A1020F5FA3
:1017F0001F4F1093A1020093A002412F64E070E0FC
:101800008F2D0E94E301402F65E070E08F2D0E9434
:10181000E30161E070E08F2D56D20E94AF0281E0BB
:101820000F900F90DF91CF911F910F91FF9008952E
:10183000AF92BF92DF92EF92FF920F931F93CF93DD
:10184000DF93D82E7B018A0180E590E00E94B002F0
:10185000C0E0D0E08D2D1EDF5C01892B19F08D2DAD
:1018600019DFEC01CA15DB05A9F7209799F463E0AD
:1018700070E08D2D0E940C028431C9F18823B9F1EA
:10188000C1E0D0E08C3111F4C0E0D0E0D195C19539
:10189000D1092DC00C171D070CF4E8011C161D06FC
:1018A00034F568E270E08D2D0E940C02082F10E0E4
:1018B00069E270E08D2D0E940C02102F0027082B8A
:1018C0009E01A701B8018D2D0ED20C0F1D1F412FB7
:1018D00068E270E08D2D0E94E301402F69E270E024
:1018E0008D2D0E94E30160E470E08D2DECD10E940B
:1018F000AF02CE01DF91CF911F910F91FF90EF903A
:10190000DF90BF90AF9008959F92AF92BF92CF9219
:10191000DF92EF92FF920F931F93CF93DF93D82E16
:10192000EB01042F122FCB0164E670E00E944E19E8
:101930005B01962E662329F084E6689FC019D109C1
:101940001124CE016AE070E00E944E197B01C62E80
:10195000662329F08AE0689FC019D10911248EE31B
:1019600090E005D28091F00490E001D280911804BB
:1019700090E0FDD1ED2DF0E0E551FB4F808190E04E
:10198000F6D1992069F1C5019927C096F0D1C70118
:101990009927C096ECD1CE019927C096E8D11123A2
:1019A00049F08FE290E0E3D1113408F4105D812F0B
:1019B00090E0DDD1002331F0802F90E0880F991F57
:1019C0008996D5D18CE390E0DF91CF911F910F9153
:1019D000FF90EF90DF90CF90BF90AF909F90C7C1E6
:1019E000CC20C9F2D4CF8EE390E0C1D163E083E98B
:1019F00092E00CD28091180490E0C096B8D18CE3AC
:101A000090E0B5C1CF92DF92EF92FF920F931F93B8
:101A1000CF93DF93CDB7DEB72A970FB6F894DEBF2A
:101A20000FBECDBF8BEB92E091DA9093770380935A
:101A30007603833091050CF437C12091FE03309179
:101A4000FF032130310509F074C0FC01EA59FC4F55
:101A5000128A80917803883549F580917903803521
:101A600079F4EAE7F3E086E08E0F9191DF01A05967
:101A7000BE4F9C938E13F9CF81E08093F305B3DFC3
:101A800080917903883509F00FC18091F305813089
:101A900009F00AC1EAE7F3E086E08E0F9191DF01D9
:101AA000A059BE4F9C938E13F9CFFEC08E3309F020
:101AB000FBC021E030E0CE0101967C0180917603ED
:101AC00090917703281739070CF0EEC0F901EA5915
:101AD000FC4F02892E5F3F4FD701BD016E197F0970
:101AE000C9018A599C4FFC018289A9014F5F5F4F50
:101AF0006A018E3319F08D939601EFCFFB01EE0D45
:101B0000FF1D108210E0C7010E94891AF801EE0F34
:101B1000FF1FEE0FFF1FED5DFB4F6083718382831C
:101B20009383F801E958FA4F808180688083960199
:101B3000C5CF8BEB92E0E8D98093F80380937803CC
:101B400000E010E08E33F9F08091760390917703F6
:101B5000081719070CF0A8C08BEB92E0D5D9809339
:101B6000F8038C3309F4A0C00F5F1F4FEDCF8C0139
:101B70008BEB92E0C9D98093F803F801EA59FC4F46
:101B8000828B8C3349F0C801019620917603309105
:101B90007703821793075CF3F801EA59FC4F8289B7
:101BA0008C3351F4009179030E3F11F1FE0131960F
:101BB00022E030E0CF0133C007581C4F7801F1E03C
:101BC000EF1AF108F70180818C3361F38BEB92E01F
:101BD000BDD98093760390937703882399F38BEB99
:101BE00092E092D98093F803F80181938F01E6CFB8
:101BF0008BE280936603EAE7F3E086E08E0F919133
:101C0000DF01A059BE4F9C938E13F9CF80918003C2
:101C10008D3209F049C081E08093F30545C0D901B8
:101C2000AA59BC4F52964C914C3321F041932F5FEF
:101C30003F4FF5CFEFEFFFEFEC0FFD1FE20FF31F6C
:101C40001082E8E7F3E0119223E0E83BF207D9F7CE
:101C500010E00E94891AF801EE0FFF1FEE0FFF1F20
:101C6000ED5DFB4F6083718382839383F801E958B4
:101C7000FA4F8081806880838BEB92E067D99093E4
:101C800077038093760300E010E0809176039091D3
:101C900077030817190744F48BEB92E035D980934A
:101CA000F8030F5F1F4FF1CF2A960FB6F894DEBFEF
:101CB0000FBECDBFDF91CF911F910F91FF90EF909D
:101CC000DF90CF900895CF93C82F462F61E070E04A
:101CD0000E94E30161E070E08C2F0E940C028111F0
:101CE000F9CFCF910895AF92BF92CF92DF92EF924A
:101CF000FF920F931F93CF93DF931F921F92CDB745
:101D0000DEB77A836983BA01A901E981FA81F770A4
:101D1000082F10E0000F111F0D541D4FD8018D9199
:101D20009C918E0F9F1F2E0F3F1F2130384090F047
:101D30007A015B0120E038E06901CE1ADF0AA601D2
:101D4000E0DCA7014C195D09B5016C0D7D1DF801A2
:101D5000808191810F900F90DF91CF911F910F9112
:101D6000FF90EF90DF90CF90BF90AF90CACC682FDC
:101D70008BEB92E021C9EF92FF921F93CF93DF93F9
:101D8000182FC62F90E09C0129583A4F7901F9018C
:101D9000808184FD08C061E0812F5FDBF7018081D5
:101DA0008D7F80618083C11102C060E003C0CF3F9E
:101DB00041F461E0812FDF91CF911F91FF90EF906F
:101DC0001DCBD0E0FE01EE0FFF1FEE0FFF1FED5DFC
:101DD000FB4F20E030E040E85FE360817181828169
:101DE00093810E94451C8111E0CFC958DA4F888148
:101DF00087FF06C061E0812F01DB88818F778883B0
:101E0000DF91CF911F91FF90EF900895EF92FF9295
:101E10000F931F93CF93DF937C018C01C62FD0E0EB
:101E2000C8018E199F098C179D0744F4F801819110
:101E30008F01082E000C990B9ADFF2CFDF91CF9122
:101E40001F910F91FF90EF900895CF93DF9390E053
:101E5000FC01EE0FFF1FE35FF84F2081318141301D
:101E6000510519F42F5F3F4F02C0215031093183D2
:101E70002083FC01EE0FFF1FE35FF84F20813181CB
:101E8000283E33400CF069C06330710571F1ACF449
:101E90006130710511F16230710509F05EC0EC012D
:101EA000CA59DC4FFE01E15CFC4F61E08081A6DA9B
:101EB000FE01E75BFC4F60E02DC06530710581F1EC
:101EC000E4F06630710509F048C0EC01CA59DC4FF6
:101ED000FE01E15CFC4F60E031C0EC01CA59DC4F0F
:101EE000FE01E15CFC4F61E029C0EC01CA59DC4F06
:101EF000FE01E15CFC4F61E007C0EC01CA59DC4F18
:101F0000FE01E15CFC4F60E0808178DAFE01E75B76
:101F1000FC4F61E0808172DACD5ADC4F60E019C07D
:101F2000EC01CA59DC4FFE01E15CFC4F60E08081AE
:101F300065DAFE01E75BFC4F61E006C080815EDA96
:101F4000FE01E75BFC4F60E0808158DACD5ADC4F40
:101F500061E08881DF91CF9151CADF91CF910895DF
:101F6000CF93DF93CDB7DEB7CB54D1090FB6F8943A
:101F7000DEBF0FBECDBF789484B5826084BD84B5CA
:101F8000816084BD85B5826085BD85B5816085BD74
:101F900080916E00816080936E001092810080912C
:101FA00081008260809381008091810081608093B4
:101FB0008100809180008160809380008091B100D9
:101FC00084608093B1008091B00081608093B00004
:101FD0008091910082608093910080919100816056
:101FE0008093910080919000816080939000809117
:101FF000A10082608093A1008091A1008160809304
:10200000A1008091A00081608093A00080912101B7
:102010008260809321018091210181608093210160
:102020008091200181608093200180917A008460FA
:1020300080937A0080917A00826080937A00809108
:102040007A00816080937A0080917A008068809322
:102050007A001092C10081E0809318049E01275DF0
:102060003F4F3EAF2DAF8091F305823029F481E0E0
:102070008093F3050C94421880917103811119C16A
:1020800081E0809371038DE28093660368EE73E0D4
:1020900080E090E06DDA8FEF809363068091FE031D
:1020A0009091FF03019799F52091750590917B051B
:1020B00080918105906190937B058061809381057B
:1020C0002333A8F08091A90580618093A9058091B0
:1020D000AA0580618093AA058091AB0580618093F9
:1020E000AB058091AC0580618093AC051AC08091EE
:1020F0008205806180938205809183058061809351
:102100008305809184058061809384050AC0809155
:102110007705806180937705809178058061809351
:10212000780580911A048823A9F0C0907203D0909A
:102130007303E0907403F0907503E091CB02F0918B
:10214000CC0282E08083C11431EED306E104F104B5
:1021500019F537C007E715E0E12CF12C80917505E2
:1021600090E0E816F9060CF7D8018C9184FD0EC0BA
:10217000BDE0EB16F10419F460E08DE002C062E00E
:102180008E2D6BD9F801808183608083FFEFEF1A79
:10219000FF0A0F5F1F4FE2CF60E079E08DE390E030
:1021A000A70196010E94871DDA01C9010197A109C3
:1021B000B109B695A795979587959C018115904192
:1021C000B8F0E091CB02F091CC02108260E874E8A4
:1021D0008EE190E0A70196010E94871DDA01C901F6
:1021E0000197A109B109B695A795979587959C0187
:1021F000E091C702F091C8023083E091C902F091EA
:10220000CA0220831092D302E091CF02F091D00253
:1022100086E08083E091CD02F091CE0280818061E2
:102220008083E091CD02F091CE028081886080832E
:10223000E091CD02F091CE02808180688083E091B0
:10224000CD02F091CE0280818F7D80831092FF03BA
:102250001092FE038091EB0481111FC0809118043D
:10226000805D8093160480916603809317048EE34B
:1022700090E07DDD65E083E194E0C8DD8CE390E0F3
:1022800076DD64EF71E080E090E072D9BBDB64EF53
:1022900071E080E090E06CD9DDCF85E090E0909334
:1022A0005C0680935B0688E090E090935E068093E6
:1022B0005D068091FE039091FF03892B49F4809184
:1022C0006703909168030196909368038093670376
:1022D00099DB8FEF8093F0051092EE0524D960937F
:1022E0001F04709320048093210490932204809112
:1022F0007103882309F4CFC380915806882309F419
:1023000088C18091F305811184C1A0905A06B12C37
:10231000EFE3EE2EE6E0FE2E00E010E0FAE18F2E75
:10232000912C0A151B050CF074C18091580682305F
:1023300039F0813031F460E0D7018C915FD801C071
:102340004801F701F29720812F703701BBE46B1A27
:102350007108F30180818370582EA4014A595C4FA3
:102360006A01222309F468C0FA01E752FD4F808117
:102370008E5F2C962FAF2C9719D831E02C962FAD6D
:102380002C97892B09F030E0213029F4F701799757
:102390003F5F308351C0832F90E0D3013C9132FBEB
:1023A000BB27B0F92296BFAF229723961FAE239783
:1023B00023966EAC7FAC239786159705E9F10A59F1
:1023C0001C4FF801E257FD4F009711F0346001C037
:1023D0003B7F3083F801E955FD4F40814F774083C3
:1023E000892BC9F4799680818A3008F01082F8012F
:1023F000E054FD4F80818F5F808390E030E02F5F5D
:102400003F4F8217930711F481E08083F801E9556B
:10241000FD4F4068408380915806813039F4F801BF
:10242000E752FD4F61E080810E94FE096FE070E09D
:1024300080E090E09DD8EDC0F601E752FD4F80812D
:102440008F5F0E94D60977247394892B09F0712C31
:10245000F601E752FD4F80810E94D609770C31E0EA
:10246000892B09F030E03729351509F4C3C0A12CB8
:10247000B12CE12CF12C27E2C21A2DEFD20AF1E0A7
:102480005F16B9F05F1648F072E0472E5414E9F079
:1024900063E0662E561429F12FC0313021F42FEF5E
:1024A000E21AF20A29C0323039F541E0E41AF108A3
:1024B00023C0333021F45FEFE51AF50A1DC0311156
:1024C0001BC061E0E61AF10817C0311104C07FEFAC
:1024D000E71AF70A11C0333079F481E0E81AF108FD
:1024E0000BC0323021F49FEFE91AF90A05C03130F0
:1024F00019F4A1E0EA1AF1088BE79CE00197F1F7E3
:10250000BFEFAB1ABB0AE0E5AE16B10419F1D60174
:102510008C918F5F2C963FAF2C970E94D6099924FF
:1025200093942C963FAD2C97892B09F0912CF601B2
:1025300080812C963FAF2C970E94D609990C21E000
:102540002C963FAD2C97892B09F020E0532E392D86
:10255000322B95CF8F2D8095881F8827881F92E07A
:10256000B92EB81AF7FE03C0F194E194F1088091F6
:102570005B0690915C06E816F9061CF4EE24E394E1
:10258000F12C80915D0690915E068E159F0514F4E6
:10259000EE0CFF1CA8014A595C4F6A014A0150E445
:1025A000851A5DEF950A0F5F1F4FE114F10481F06A
:1025B000D4012C914B2DB80180E02C963FAF2C9785
:1025C000A3D9B1E0EB1AF1082C963FAD2C97EDCFD3
:1025D000F601E257FD4F80818470380F308380917F
:1025E00058068130B1F4E55BFF4F61E080810E94C5
:1025F000FE090FC080915806813029F461E0F7018F
:1026000080810E94FE090F5F1F4FFFEFEF1AFF0A44
:1026100088CE0091610680916206081709F4A7C070
:1026200090915F0680916006981709F4A0C010E0B1
:1026300090EFC92E2EEDB22E8091620690E08017A9
:1026400091070CF492C0D02E60E0802F0E94FE090A
:10265000E0905F06F12C8091600690E08E159F055A
:102660000CF47CC08091F0058F5F8093F0058E2D77
:102670000E94D609B1E0892B09F4B0E0B093F105CE
:10268000A091F0052A2F22952F7030E04C2D4203A7
:10269000B001439F700D11246A0F711D220F331F6B
:1026A000F901E355FA4F408151818B2F90E0FA01F7
:1026B000062E02C0F695E7950A94E2F7E170FF272F
:1026C0008E179F0729F48091F305813009F042C0ED
:1026D000AF5FA093F005F901E355FA4FBB2381F0FA
:1026E00081E090E0A0E0B0E004C0880F991FAA1F2D
:1026F000BB1F6A95D2F7842B952B9183808311C0E1
:1027000081E090E0A0E0B0E004C0880F991FAA1F0C
:10271000BB1F6A95D2F78095909548235923518322
:10272000408361E08D2D0E94FE094091F1054F5FCD
:102730006091F00570E020E083E0E6D86FE070E0A3
:1027400080E090E00E94B80AB092EE058091F30517
:10275000882369F05FEFE51AF50A7DCF61E08D2DE2
:102760000E94FE090F5F1F4F67CF1092EE05D12C1C
:1027700080917505D81608F048C00D2D10E0B801FD
:102780006A597C4F7B01FB01EF5EFD4F808181FF29
:1027900051C08D2D0E94D60941E0892B09F440E0FB
:1027A0004093F105F701EF5EFD4F2081842F90E00B
:1027B000722F717024967FAF249725961FAE2597B0
:1027C00025964EAC5FAC25978415950521F4809134
:1027D000F305813079F5F701EF5EFD4F442311F0E9
:1027E000216001C02E7F2083D092F0054F5F20E052
:1027F000B80181E089D86FE070E080E090E00E944D
:10280000B80A8091F305811115C00E94F00A009169
:102810001B0410911C0420911D0430911E04DC0146
:10282000CB01801B910BA20BB30B4A97A105B105FD
:1028300040F402C0D3949CCF8091F305813009F01D
:102840002AC125E335E021963FAF2EAF2197E12C39
:10285000F12C0FC02196AEADBFAD21978D919D910A
:102860002196BFAFAEAF2197009751F46FEFE61AF4
:10287000F60A8091760590E0E816F9065CF301C14E
:102880005E960D911C915F976801CD2CDD24C69456
:10289000C69413704C01B3E09B2292FB662460F84F
:1028A00080E094E0B401FAD45B017E2C8E2D0E946E
:1028B000690A8C159D0554F08E2D0E94690A08172F
:1028C000190734F08E2D0E94690A03C0C60101C0A9
:1028D000C80161101FC01601DD0C44085508092EFF
:1028E000000CAA0BBB0B9C01AD0122193309440952
:1028F0005509AFEFB3E00E947D1D012E000C220BA5
:10290000330BA901980122193309440955090E9482
:10291000611DC901BC01990F880B990BBCD71B0124
:102920002C01B501BB0C880B990BB5D79B01AC01F1
:10293000C201B1014DD55B016C0120E030E0A9017D
:10294000E0D520E030E040E05FE387FD04C0C60151
:10295000B501DAD403C0C601B501D5D4A1D5DB01D8
:102960002196EEADFFAD2197E254F109808191816E
:102970008A179B0729F48091F305813009F076CFFF
:10298000B183A083611013C028EE33E0A2D4940178
:10299000990C440B550B0E94611D57FD0CC0293E3C
:1029A000E3E03E07410551054CF4890109C08D0162
:1029B0000F5F1F4F05C000E010E002C008EE13E0FB
:1029C000872D6AE05FD4A82E4AE069EF73E0C80162
:1029D000A3D5AA2011F0F6EF7F0EC8016AE070E0DF
:1029E0005DD46B01B62E662331F036EF3603C0019D
:1029F0001124080F191F8EE390E0B9D98091F004DB
:102A000090E0B5D98091180490E0B1D98091ED049F
:102A100090E0ADD9AA2019F081E390E0A8D9872DE4
:102A200090E0C096A4D941E064120EC08FE290E01D
:102A30009ED9BB2021F0C6019927C09698D9C8011C
:102A40009927C09694D913C080E290E090D9E9EF1D
:102A5000F3E0309761F001900020E9F7AF014A5FA1
:102A6000534069EF73E08BEB92E00E9459078CE3CF
:102A700090E07DD98091F3058111F8CE51E0651287
:102A8000F5CE0E94F00A60931B0470931C0480939F
:102A90001D0490931E0480912107811118C00E948B
:102AA000F00A0091A1061091A2062091A306309190
:102AB000A4066B017C01C01AD10AE20AF30A74E190
:102AC000C716D104E104F10408F043C033C180917A
:102AD000F305813021F709EF16E0E12CF12CF70125
:102AE000E155F94F808181110FC0D80155961C9294
:102AF0001E925497BFEFEB1AFB0A0E5F1F4FEAE0DE
:102B0000EE16F10461F7CBCFBE2CACEFCA2EA3E0DA
:102B1000DA2E8BE79CE00197F1F7D8018D919C911B
:102B20001197892B21F4E6E0F0E0ED93FC93D801B6
:102B30006D917C9140E050E08B2D87D9F801808128
:102B40009181019791838083F1E0CF1AD10809F731
:102B5000CCCF809163068F3F09F4ECC00E94F00A4D
:102B60006093A1067093A2068093A3069093A40697
:102B700024E1C216D104E104F10409F0DBC0AE0186
:102B80004F5F5F4FDE019996FA01119211921D92EB
:102B90004DAC5EACE415F505C1F7A5E6B6E08FEFE8
:102BA0009FEFCD90DD909C0160E070E02F3FFFEF44
:102BB0003F07E9F07A01E60EF71E8701025011097E
:102BC000F80100811181C016D1068CF4F701118340
:102BD000008309E210E00C0F1D1F020F131FF80104
:102BE000F080F1822150310962507109DFCF2F5FEF
:102BF0003F4FB901660F771F44244394512C4C0E6C
:102C00005D1E640D751DFB01D182C082E9E2F0E01A
:102C1000EC0FFD1FE20FF31F61E0680F6083019668
:102C20004E5F5F4F8331910509F0BBCFC0906306C3
:102C3000D12C8C010C191D0969E2A62EB12CAC0E09
:102C4000BD1EA00EB11E73E0872E912CD501ED9113
:102C50005D01F0E0E357F94F61E080810E94FE09D9
:102C6000C4010197F1F775014DAC5EACE418F508AD
:102C700024E1E216F10451F7F801EE0FFF1F41E0E5
:102C800050E04C0F5D1FE40FF51F20813181409112
:102C9000630681E090E0841B910943E0880F991F4F
:102CA0004A95E1F7820F931F0E94880AE9E2F0E05B
:102CB000EC0FFD1FE00FF11FE081F0E0E357F94F4B
:102CC00060E080810E94FE09EC18FD0809E210E036
:102CD0000C0F1D1F0E0D1F1DEE0CFF1CC12CD12C47
:102CE000C8014DAC5EAC84199509449719F1F60101
:102CF000EE0DFF1D61E070E06C0F7D1FE60FF71F0A
:102D0000808191813297208131812817390724F4FD
:102D1000821B930B0E94880AD801ED918D01F0E08F
:102D2000E357F94F60E080810E94FE09B2E0CB0ECC
:102D3000D11CD6CF80912107882309F47AC10E9443
:102D4000930A00911F0410912004209121043091D6
:102D50002204DC01CB01801B910BA20BB30B81324F
:102D60009340A105B10548F010921F041092200471
:102D7000109221041092220421C00E94930A009113
:102D80001F04109120042091210430912204DC01C1
:102D9000CB01801B910BA20BB30B80329340A1059A
:102DA000B10560F480E293E0A0E0B0E080931F04FE
:102DB00090932004A0932104B093220409EF16E01D
:102DC0004DEC56E021965FAF4EAF2197212C312C70
:102DD0008091210790E0281639060CF024C1C1012A
:102DE0008A599C4FFC01E75BFC4F2081222309F4A8
:102DF0000BC17496808190E0BC016A597C4F279684
:102E00007FAF6EAF2797FB01EF5EFD4F208127FF5D
:102E1000FBC0880F991F880F991FFC01ED5DFB4FC8
:102E200040805180628073802196AEADBFAD219706
:102E30001496CD90DD90ED90FC90179720E030E057
:102E4000A901C701B6015DD3181654F420E030E0A3
:102E500040E050E4C701B60118D587FD34C013C067
:102E600020E030E040E050ECC701B6014AD318162C
:102E700054F120E030E040E251ECC701B60141D30B
:102E8000181624F10AC020E030E040E251E4C70106
:102E9000B601FBD487FD1AC00AC020E030E048EC40
:102EA00052ECC701B6012DD3181654F012C020E021
:102EB00030E048EC52E4C701B601E7D487FF09C00F
:102EC0006AE070E008C068EE73E005C064E670E098
:102ED00002C061E070E0072E000C880B990BDBD478
:102EE0004B015C012196EEADFFAD21972081318130
:102EF000428153812FD5D4D22B966CAF7DAF8EAF4C
:102F00009FAF2B97A5019401C301B20123D5C8D26D
:102F10009B01AC012B964CAC5DAC6EAC7FAC2B979F
:102F20002419350946095709A8EEB3E0E6D52B0167
:102F30003C01A5019401C701B6010CD5B1D29B019A
:102F4000AC012B96CCACDDACEEACFFAC2B972C19C6
:102F50003D094E095F09C301B201B3D569017A0188
:102F6000D8018D919C911197079721F481E090E011
:102F70008D939C93F80180819181892B29F486E0BF
:102F8000482E512C51824082D80154968D919C91AB
:102F90005597092E000CAA0BBB0BF80160817181BB
:102FA0008C159D05AE05BF056CF441E050E0822D07
:102FB0000E94250FD8018D919C91119701968D93B8
:102FC0009C930BC040E050E0822D0E94250FF80139
:102FD00080819181019791838083D80154968D914E
:102FE0009C915597092E000CAA0BBB0BC816D9064D
:102FF000EA06FB0649F42796EEADFFAD2797EF5E94
:10300000FD4F80818F778083BFEF2B1A3B0A0E5FC5
:103010001F4F2196EEADFFAD219734962196FFAF5D
:10302000EEAF2197D5CE80911F04909120040E948D
:10303000880A1092F305809167039091680389389C
:10304000934100F18091FE039091FF03892BD1F40D
:10305000109268031092670380911804805D80933A
:10306000160480916603809317048EE390E00E941B
:10307000B70E65E083E194E00E94060F8CE390E0D8
:103080000E94B70E61E085E00E94BB0E62E086E020
:103090000E94BB0E63E087E00E94BB0E64E088E004
:1030A0000E94BB0E0E9443080C9433100F931F9391
:1030B000E2E2F7E08BE892E0918380831282138250
:1030C00014821582EBEBF2E01382128248EE53E099
:1030D00060E070E0448355836683778329E132E0C2
:1030E0003183208325EC30E03587248724EC30E0E1
:1030F0003787268720EC30E0318B208B21EC30E0C5
:10310000338B228B22EC30E0358B248B26EC30E0A5
:10311000378B268B118E128E138E148EE8E2F7E019
:10312000918380831282138214821582EEE2F7E08B
:10313000918380831282138214821582E4E3F7E084
:10314000918380831282138214821582EAE3F7E06E
:10315000918380831282138214821582E8E5F3E062
:10316000918380831282138214821582E0E6F3E059
:10317000918380831282138214821582E0E4F7E047
:10318000918380831282138214821582E6E6F3E033
:10319000138600E012EC21E030E0048715872687D3
:1031A000378721E030E03093FF032093FE0328EDC2
:1031B00033E1309301042093000428E63FEB309381
:1031C0000304209302041092040410920504109248
:1031D0000604109207041092080410920904109239
:1031E0000A0410920B0410920C0426E0EAE0F2E0CC
:1031F000ADE0B4E001900D922A95E1F725E0E0E121
:10320000F2E0A3E1B4E001900D922A95E1F726E304
:103210002093750520E12093760521E02093ED05AC
:1032200022E02093F305EDE6F7E09183808312829C
:10323000138214821582E2E5F7E01382128244833E
:1032400055836683778325E632E031832083978731
:103250008687108A118A128A138A24E0208FECE470
:10326000F7E0918380831282138214821582E6E450
:10327000F7E09183808312821382148215821F915A
:103280000F910895991B79E004C0991F961708F0D3
:10329000961B881F7A95C9F78095089597FB072E8E
:1032A00016F4009406D077FD08D019D007FC05D09D
:1032B0003EF4909581959F4F0895709561957F4F4D
:1032C0000895EE0FFF1F881F8BBF0790F691E02D2A
:1032D00019943FD4B7FF0895821B930B0895AA1B3E
:1032E000BB1B51E107C0AA1FBB1FA617B70710F0F1
:1032F000A61BB70B881F991F5A95A9F78095909523
:10330000BC01CD0108955058BB27AA270ED09FC3FA
:1033100090D330F095D320F031F49F3F11F41EF498
:1033200085C30EF4E095E7FB7BC3E92FA1D380F3BF
:10333000BA17620773078407950718F071F49EF5B2
:10334000B9C30EF4E0950B2EBA2FA02D0B01B901D5
:1033500090010C01CA01A0011124FF27591B99F00B
:10336000593F50F4503E68F11A16F040A22F232F17
:10337000342F4427585FF3CF469537952795A79567
:10338000F0405395C9F77EF41F16BA0B620B730B0E
:10339000840BBAF09150A1F0FF0FBB1F661F771F7F
:1033A000881FC2F70EC0BA0F621F731F841F48F434
:1033B000879577956795B795F7959E3F08F0B3CFBA
:1033C0009395880F08F09927EE0F979587950895A4
:1033D0000CD03DC335D340F02CD330F021F45F3F07
:1033E00019F01EC3511167C321C342D398F3992327
:1033F000C9F35523B1F3951B550BBB27AA276217B9
:103400007307840738F09F5F5F4F220F331F441FFD
:10341000AA1FA9F333D00E2E3AF0E0E830D0915035
:103420005040E695001CCAF729D0FE2F27D0660F22
:10343000771F881FBB1F261737074807AB07B0E861
:1034400009F0BB0B802DBF01FF2793585F4F2AF077
:103450009E3F510568F0E4C22EC35F3FECF3983EF7
:10346000DCF3869577956795B795F7959F5FC9F7D4
:10347000880F911D9695879597F90895E1E0660F5D
:10348000771F881FBB1F621773078407BA0720F0D6
:10349000621B730B840BBA0BEE1F88F7E09508953F
:1034A00004D06894B11107C30895EAD288F09F57F9
:1034B00090F0B92F9927B751A0F0D1F0660F771F80
:1034C000881F991F1AF0BA95C9F712C0B13081F060
:1034D000F1D2B1E00895EEC2672F782F8827B85F48
:1034E00039F0B93FCCF3869577956795B395D9F7C1
:1034F0003EF490958095709561957F4F8F4F9F4FCB
:10350000089504D208F48FEF089581E090E0F894D4
:103510002FC36627772723C0BB274A3031F499236E
:1035200022F4BDE2909581959F4F01C0BB27FB011E
:103530005527AA27880F991FAA1FA41710F0A41BAC
:1035400083955051B9F7A05DAA3308F0A95DA19306
:10355000009779F7B111B1931192CB0186C16F92A7
:103560007F928F929F92AF92BF92CF92DF92EF9213
:10357000FF920F931F93CF93DF93EC017B016115B3
:10358000710519F0DB018D939C938E010F5F1F4F26
:103590007880872D90E049D1892B11F0E801F5CF93
:1035A000BDE27B1205C00F5F1F4F7980C1E008C0EC
:1035B000EBE27E1204C08E010E5F1F4F7980C0E0E7
:1035C0006801F1E0CF1AD10843E050E060E372E017
:1035D000C60133D1892BE9F4680122E0C20ED11C67
:1035E00045E050E06BE272E0C60127D1892B21F45F
:1035F000680187E0C80ED11CE114F10419F0D7016D
:10360000CD92DC92C111F9C060E070E080E89FE7E4
:10361000FDC043E050E068E272E0C6010ED1892BA4
:1036200051F4E114F10409F4EDC00E5F1F4FF701EE
:1036300011830083E7C0680160E070E0CB0100E027
:1036400010E0F601D0EDD70DDA3050F52C2F2260C6
:10365000622E2C2F2870C2FF05C0211127C00F5FDA
:103660001F4F24C0222311F001501109A5E0B0E042
:103670009B01AC0142D24B015C01880C991CAA1C35
:10368000BB1CC501B4016D0F711D811D911D6839F1
:10369000A9E97A078A07A9E19A0740F0C66005C040
:1036A000DE3F51F4C3FD44C0C8606C2EBFEFCB1A9F
:1036B000DB0A7080C62DC5CF2D2F2F7D2531C1F59A
:1036C00040814D3211F4C06106C04B3221F0319679
:1036D00021E030E006C03296D60111964C9122E0EE
:1036E00030E0A0EDA40FAA3018F0E21BF30B20C0CD
:1036F00040E050E04038BCE05B075CF49A01220FE8
:10370000331F220F331F420F531F440F551F4A0F01
:10371000511D3196DF0111972C91A0EDA20FAA3017
:1037200048F3C4FF03C0519541955109040F151F7B
:10373000C1FF07C0E114F10421F03197D701ED93E7
:10374000FC93A7D0C370C33019F06B017C0106C095
:103750006B017C01F7FAF094F7F8F09420E030E088
:10376000A901C701B60191D0882309F443C017FF0E
:1037700006C0119501951109C7E4D2E002C0CFE55A
:10378000D2E05E01B8E1AB1AB1084601BE2DAF2D03
:1037900090E2E92EF12C0E151F057CF0FE0125911B
:1037A000359145915491B4018B2F9A2FD3D04B0171
:1037B000B82FA92F0E191F09EECF2497F594E7947F
:1037C000CA15DB0541F76401EB2EFA2E8E2D880F0A
:1037D0008F2D881F8F3F41F020E030E0A901C70105
:1037E000B60153D0811106C082E290E09093740735
:1037F00080937307C701B60109C060E070E080E8FC
:103800009FEF04C060E070E080EC9FE7DF91CF9114
:103810001F910F91FF90EF90DF90CF90BF90AF90EE
:103820009F908F907F906F9008959111F6C0803295
:1038300019F089508550D0F70895FB01DC01415003
:10384000504088F08D9181341CF08B350CF4805EF3
:10385000659161341CF06B350CF4605E861B611160
:1038600071F3990B0895881BFCCFDC01FC01672FD5
:1038700071917723E1F7329704C07C916D93708347
:103880006291AE17BF07C8F3089540D008F481E0F5
:103890000895E89409C097FB3EF490958095709543
:1038A00061957F4F8F4F9F4F9923A9F0F92F96E98C
:1038B000BB279395F695879577956795B795F11101
:1038C000F8CFFAF4BB0F11F460FF1BC06F5F7F4F9E
:1038D0008F4F9F4F16C0882311F096E911C07723B0
:1038E00021F09EE8872F762F05C0662371F096E8B9
:1038F000862F70E060E02AF09A95660F771F881F88
:10390000DAF7880F9695879597F90895990F00082B
:10391000550FAA0BE0E8FEEF16161706E807F907A1
:10392000C0F012161306E407F50798F0621B730B3C
:10393000840B950B39F40A2661F0232B242B252BBD
:1039400021F408950A2609F4A140A6958FEF811D60
:10395000811D08950BD07BC06CD028F071D018F079
:10396000952309F05DC062C01124A5C081D0A0F3E9
:10397000959FD1F3950F50E0551F629FF001729F04
:10398000BB27F00DB11D639FAA27F00DB11DAA1F23
:10399000649F6627B00DA11D661F829F2227B00D70
:1039A000A11D621F739FB00DA11D621F839FA00DFB
:1039B000611D221F749F3327A00D611D231F849F4B
:1039C000600D211D822F762F6A2F11249F575040A2
:1039D0008AF0E1F088234AF0EE0FFF1FBB1F661F3D
:1039E000771F881F91505040A9F79E3F510570F0F6
:1039F00017C061C05F3FECF3983EDCF38695779586
:103A00006795B795F795E7959F5FC1F7FE2B880FF0
:103A1000911D9695879597F9089599278827089578
:103A200097F99F6780E870E060E008959FEF80EC71
:103A3000089500240A941616170618060906089514
:103A400000240A9412161306140605060895092E7A
:103A50000394000C11F4882352F0BB0F40F4BF2BE9
:103A600011F460FF04C06F5F7F4F8F4F9F4F089529
:103A700057FD9058440F551F59F05F3F71F047951F
:103A8000880F97FB991F61F09F3F79F08795089504
:103A9000121613061406551FF2CF4695F1DF08C023
:103AA000161617061806991FF1CF86957105610540
:103AB00008940895E894BB2766277727CB0197F9E8
:103AC0000895052E97FB16F400940FD057FD05D0EE
:103AD0001ED007FC02D046F408C0509540953095A2
:103AE00021953F4F4F4F5F4F08959095809570956A
:103AF00061957F4F8F4F9F4F08952BD0A59F900DBD
:103B0000B49F900DA49F800D911D11240895A1E2F2
:103B10001A2EAA1BBB1BFD010DC0AA1FBB1FEE1F47
:103B2000FF1FA217B307E407F50720F0A21BB30B92
:103B3000E40BF50B661F771F881F991F1A9469F70E
:103B400060957095809590959B01AC01BD01CF016A
:103B50000895A29FB001B39FC001A39F700D811D66
:103B60001124911DB29F700D811D1124911D089586
:043B7000F894FFCFF7
:103B74000100000001005E000000DEADBEEFFEECBF
:103B84007C4152312D00000000DC075907A6078450
:103B9400079807220800000000D108D108D108D1F5
:103BA40008D108D108D108D108D108D108D108D149
:103BB40008D108D108D108D10800000000D1085963
:103BC40007D108D108D108D10800000000D1085954
:103BD400070000000066017C037C01BA01D702657E
:103BE400017604C3023804A6040C0409039B01945F
:103BF40001840180013202000000002F090000004E
:083C040000D1087C41520000D0
:020000023000CC
:10E000000D9489F10D94B2F10D94B2F10D94B2F129
:10E010000D94B2F10D94B2F10D94B2F10D94B2F1F0
:10E020000D94B2F10D94B2F10D94B2F10D94B2F1E0
:10E030000D94B2F10D94B2F10D94B2F10D94B2F1D0
:10E040000D94B2F10D94B2F10D94B2F10D94B2F1C0
:10E050000D94B2F10D94B2F10D94B2F10D94B2F1B0
:10E060000D94B2F10D94B2F10D94B2F10D94B2F1A0
:10E070000D94B2F10D94B2F10D94B2F10D94B2F190
:10E080000D94B2F10D94B2F10D94B2F10D94B2F180
:10E090000D94B2F10D94B2F10D94B2F10D94B2F170
:10E0A0000D94B2F10D94B2F10D94B2F10D94B2F160
:10E0B0000D94B2F10D94B2F10D94B2F10D94B2F150
:10E0C0000D94B2F10D94B2F10D94B2F10D94B2F140
:10E0D0000D94B2F10D94B2F10D94B2F10D94B2F130
:10E0E0000D94B2F141546D656761323536300041AF
:10E0F000726475696E6F206578706C6F72657220DE
:10E1000073746B3530305632206279204D4C530099
:10E11000426F6F746C6F616465723E004875683F52
:10E1200000436F6D70696C6564206F6E203D200048
:10E130004350552054797065202020203D20005FF9
:10E140005F4156525F415243485F5F3D2000415658
:10E1500052204C696243205665723D20004743437C
:10E160002056657273696F6E203D20004350552024
:10E1700049442020202020203D20004C6F7720663D
:10E18000757365202020203D20004869676820665F
:10E190007573652020203D200045787420667573D6
:10E1A00065202020203D20004C6F636B2066757336
:10E1B000652020203D20004D617220203720323024
:10E1C000313300312E362E3800342E332E350056A2
:10E1D00023202020414444522020206F7020636F70
:10E1E00064652020202020696E73747275637469E1
:10E1F0006F6E2061646472202020496E74657272B3
:10E20000757074006E6F20766563746F7200726A49
:10E210006D702020006A6D70200057686174207056
:10E220006F72743A00506F7274206E6F7420737541
:10E2300070706F72746564004D7573742062652030
:10E2400061206C6574746572002000577269747483
:10E25000696E672045450052656164696E672045B7
:10E26000450045452065727220636E743D00504F35
:10E27000525400303D5A65726F2061646472003FF1
:10E280003D43505520737461747300403D454550C3
:10E29000524F4D207465737400423D426C696E6B41
:10E2A000204C454400453D44756D70204545505215
:10E2B0004F4D00463D44756D7020464C415348001B
:10E2C000483D48656C70004C3D4C69737420492F83
:10E2D0004F20506F72747300513D51756974005234
:10E2E0003D44756D702052414D00563D73686F7707
:10E2F00020696E7465727275707420566563746FF0
:10E30000727300593D506F727420626C696E6B00BD
:10E310002A0011241FBECFEFD1E2DEBFCDBF01E046
:10E320000CBF12E0A0E0B2E0EEE1FDEF03E00BBFB6
:10E3300002C007900D92A030B107D9F712E0A0E01B
:10E34000B2E001C01D92AE30B107E1F70F9460F367
:10E350000D948DFE01E20EBF0FEF0DBF11241FBE05
:10E360000D9460F30D9400F020E030E040ED57E0B4
:10E3700005C0FA013197F1F72F5F3F4F2817390792
:10E38000C0F308959C01260F311DC901A0E0B0E043
:10E390002F5F3F4FABBFFC018791882361F08093D3
:10E3A000C6008091C00086FFFCCF8091C0008064D1
:10E3B0008093C000EACF08958DE08093C6008091DD
:10E3C000C00086FFFCCF8091C00080648093C000B5
:10E3D0008AE08093C6008091C00086FFFCCF8091C8
:10E3E000C00080648093C00008950F94C2F10F9420
:10E3F000DCF10895FC019081992359F09093C600B7
:10E400008091C00086FFFCCF8091C0008064809323
:10E41000C0003196992379F70895282F982F929567
:10E420009F70892F805D8A3308F0895F8093C600D2
:10E430008091C00086FFFCCF8091C00080648093F3
:10E44000C000822F8F70982F905D9A3308F0995FEB
:10E450009093C6008091C00086FFFCCF8091C000E1
:10E4600080648093C00008959C01FB01853691056E
:10E470001CF46330710594F0C90164E670E00F94F8
:10E480002EFE605D7F4F6093C6008091C00086FFC6
:10E49000FCCF8091C00080648093C0002B30310598
:10E4A00014F43297B4F0C90164E670E00F942EFEC4
:10E4B0006AE070E00F942EFE605D7F4F6093C600AF
:10E4C0008091C00086FFFCCF8091C0008064809363
:10E4D000C000C9016AE070E00F942EFEC0968093E0
:10E4E000C6008091C00086FFFCCF8091C000806490
:10E4F0008093C00008951F93182F8EE692EE60E07F
:10E500000F94C2F11093C6008091C00086FFFCCF2B
:10E510008091C00080648093C0000F94DCF11F9153
:10E5200008952F923F924F925F926F927F928F92B7
:10E530009F92AF92BF92CF92DF92EF92FF920F9392
:10E540001F93DF93CF93CDB7DEB762970FB6F894E2
:10E55000DEBF0FBECDBF382E622ECA01DB015C01CB
:10E560006D01772420E2222E2E010894411C511CBB
:10E570008BC081E0A81680E0B80681E0C80680E084
:10E58000D80628F0C601AA27BB270F940DF2BB2797
:10E59000AD2D9C2D8B2D0F940DF28A2D0F940DF225
:10E5A0002092C6008091C00086FFFCCF8091C00001
:10E5B00080648093C0009DE29093C6008091C0006B
:10E5C00086FFFCCF8091C00080648093C0002092C1
:10E5D000C6008091C00086FFFCCF8091C00080649F
:10E5E0008093C00019828601750188249924A1E0D6
:10E5F0003A1651F03A1620F0B2E03B1661F409C029
:10E600000BBFF701779007C0C7010F9477FE782EF4
:10E6100002C0F7017080872D0F940DF22092C60082
:10E620008091C00086FFFCCF8091C0008064809301
:10E63000C000872D8052F401EF70F0708F3520F408
:10E64000E40DF51D708204C0E40DF51D8EE280839B
:10E650000894E11CF11C011D111D0894811C911CE2
:10E6600090E18916910409F0C2CF80E190E0A0E02A
:10E67000B0E0A80EB91ECA1EDB1E198AC2010F9493
:10E68000FAF10F94DCF16A94662009F072CF629679
:10E690000FB6F894DEBF0FBECDBFCF91DF911F91B3
:10E6A0000F91FF90EF90DF90CF90BF90AF909F9031
:10E6B0008F907F906F905F904F903F902F90089534
:10E6C0002F923F924F925F926F927F928F929F9282
:10E6D000AF92BF92CF92DF92EF92FF920F931F9370
:10E6E000DF93CF93CDB7DEB7CD53D1400FB6F894BB
:10E6F000DEBF0FBECDBF01E20EBF0FEF0DBF94B75F
:10E70000F894A89514BE80916000886180936000A1
:10E7100010926000789493FF05C0E0910002F091A0
:10E7200001021995279A2F9A8091C00082608093E8
:10E73000C00080E18093C40088E18093C1000000A4
:10E74000EE24FF24870144E0A42EB12CCC24DD2448
:10E7500024C0C5010197F1F70894E11CF11C011DCB
:10E76000111D21E2E2162EE4F20620E0020720E06D
:10E77000120718F031E0C32ED12CC801B70127ECE5
:10E780003BE140E050E00F9441FE611571058105C9
:10E79000910519F485B1805885B98091C00087FD35
:10E7A00003C0C114D104A9F2A6014F5F5F4FC25E3E
:10E7B000DE4F59834883CE51D140C25EDE4F8881FF
:10E7C0009981CE51D140019711F00D9410FEC05D9A
:10E7D000DE4F19821882C053D14060E0C15DDE4F28
:10E7E0001882CF52D14088249924C35DDE4F19820C
:10E7F0001882CD52D140C05EDE4F188219821A8233
:10E800001B82C052D140CE5CDE4F188219821A8220
:10E810001B82C253D140EE24FF2487010BBFF701B6
:10E8200007911691C45CDE4F19830883CC53D14005
:10E830000D940BFEC25EDE4F28813981CE51D1404E
:10E840002130310509F52091C600C25EDE4F1982E4
:10E850001882CE51D14022C02F5F3F4F4F4F5F4FA4
:10E86000213082E138078AE7480780E0580780F0C6
:10E87000C45CDE4FE881F981CC53D140EF5FFF4F9C
:10E8800019F0EE27FF27099420E030E040E050E047
:10E890008091C00087FFE0CF2091C600C35DDE4FAE
:10E8A00048815981CD52D1404F5F5F4FC35DDE4FEC
:10E8B00059834883CD52D140213209F063C64A3092
:10E8C000510508F05FC60894811C911C53E0851621
:10E8D000910409F059C600E010E018C081E280936D
:10E8E000C6008091C00086FFFCCF8091C00080648C
:10E8F0008093C0002F5F3F4F2931310579F70F9486
:10E90000DCF10F5F1F4F0530110519F020E030E0FA
:10E91000E5CF10920A0210920B0210920C02109294
:10E920000D02109206021092070210920802109235
:10E930000902109202021092030210920402109235
:10E9400005028FEE90EE60E00F94F5F180E191EE1C
:10E9500060E00F94C2F18091C00087FFFCCF9091DE
:10E96000C600903608F09F759032B8F09093C600BC
:10E970008091C00086FFFCCF8091C00080648093AE
:10E98000C000A0E2A093C6008091C00086FFFCCF2B
:10E990008091C00080648093C000983409F4D7C18E
:10E9A0009934B8F4923409F459C1933458F490333B
:10E9B00019F1903308F4E3C59F33A1F1903409F0C5
:10E9C000DEC5BDC0953409F470C1963409F0D7C5D1
:10E9D00098C1923509F42BC2933538F49C3409F46C
:10E9E000F5C1913509F0CBC518C2963509F445C279
:10E9F000993509F0C4C567C483E792EE62E00F94CD
:10EA0000F5F110920602109207021092080210927D
:10EA1000090210920A0210920B0210920C0210923C
:10EA20000D0213C18FE792EE62E00F94F5F18FEEC5
:10EA300090EE60E00F94F5F181E291EE60E00F94CA
:10EA4000C2F187EB91EE60E00F94F5F180E391EE77
:10EA500060E00F94C2F184EE90EE60E00F94F5F167
:10EA60008FE391EE60E00F94C2F186E090E061E008
:10EA700070E00F9434F20F94DCF18DE591EE60E0DC
:10EA80000F94C2F189EC91EE60E00F94F5F18EE401
:10EA900091EE60E00F94C2F183EC91EE60E00F9490
:10EAA000F5F18CE691EE60E00F94C2F18EE10F94E7
:10EAB0000DF288E90F940DF281E00F940DF20F949E
:10EAC000DCF18BE791EE60E00F94C2F119E0E0E039
:10EAD000F0E010935700E4918E2F0F940DF20F94F5
:10EAE000DCF18AE891EE60E00F94C2F1E3E0F0E03F
:10EAF00010935700E4918E2F0F940DF20F94DCF1D8
:10EB000089E991EE60E00F94C2F1E2E0F0E0109349
:10EB10005700E4918E2F0F940DF20F94DCF188EAE8
:10EB200091EE60E00F94C2F1E1E0F0E01093570045
:10EB30001491812F0F940DF20F94DCF107CF8BE825
:10EB400092EE62E00F94F5F18BE492EE60E00F94A8
:10EB5000F5F10F94DCF100E010E019C0C8016F2D51
:10EB60000F947FFEFF2031F489E492EE60E00F9471
:10EB7000C2F10BC0F092C6008091C00086FFFCCFAE
:10EB80008091C00080648093C0000F5F1F4FC80158
:10EB900081519F41A0E0B0E0ABBFFC01F790BAE229
:10EBA000FB1621F0E2E000301E07C1F60F94DCF105
:10EBB0000F94DCF187E592EE60E00F94F5F10F948D
:10EBC000DCF1CC24DD2400E010E01EC0C8010F946D
:10EBD00077FEF82E882331F489E492EE60E00F94FA
:10EBE000C2F10BC08093C6008091C00086FFFCCFAD
:10EBF0008091C00080648093C000FE1419F00894D6
:10EC0000C11CD11C0F5F1F4FC80181519F41A0E063
:10EC1000B0E0ABBFFC01E790FAE2EF1621F022E092
:10EC20000030120799F60F94DCF10F94DCF182E6C4
:10EC300092EE60E00F94C2F1C60161E070E00F94C3
:10EC400034F20F94DCF10F94DCF110920202109276
:10EC50000302109204021092050278CE89E992EE26
:10EC600062E00F94F5F1279A2F9A16C02F9880E052
:10EC700090E0E0EDF7E03197F1F7019684369105E9
:10EC8000C1F72F9A80E090E0E0EDF7E03197F1F7DF
:10EC9000019684369105C1F78091C00087FFE6CFC9
:10ECA0008091C00087FFFCCF64C485EA92EE62E0E9
:10ECB0000F94F5F140910202509103026091040219
:10ECC0007091050281E020E10F9491F2809102029F
:10ECD00090910302A0910402B091050280509F4FD1
:10ECE000AF4FBF4F8093020290930302A0930402A0
:10ECF000B093050280509041A040B04008F426CE69
:10ED0000A4CF83EB92EE62E00F94F5F140910602FE
:10ED100050910702609108027091090280E020E1A1
:10ED20000F9491F28091060290910702A09108023F
:10ED3000B091090280509F4FAF4FBF4F80930602A2
:10ED400090930702A0930802B0930902FFCD80ECD4
:10ED500092EE62E00F94F5F183E792EE60E00F949B
:10ED6000F5F18FE792EE60E00F94F5F18BE892EE0B
:10ED700060E00F94F5F189E992EE60E00F94F5F10F
:10ED800085EA92EE60E00F94F5F183EB92EE60E09D
:10ED90000F94F5F180EC92EE60E00F94F5F187ECC2
:10EDA00092EE60E00F94F5F188ED92EE60E00F9442
:10EDB000F5F18FED92EE60E00F94F5F18AEE92EEB0
:10EDC00060E00F94F5F183E093EEBDCD87EC92EE19
:10EDD00062E00F94F5F181E40F947BF282E40F94EA
:10EDE0007BF283E40F947BF284E40F947BF285E45E
:10EDF0000F947BF286E40F947BF287E40F947BF20E
:10EE000088E40F947BF28AE40F947BF28BE40F94F6
:10EE10007BF28CE40F947BF299CD88ED92EE62E068
:10EE20000F94F5F1772473948824992409C48FED05
:10EE300092EE62E00F94F5F140910A0250910B02BC
:10EE400060910C0270910D0282E020E10F9491F22A
:10EE500080910A0290910B02A0910C02B0910D02D8
:10EE600080509F4FAF4FBF4F80930A0290930B0289
:10EE7000A0930C02B0930D0269CD8AEE92EE62E08F
:10EE80000F94F5F184EE90EE60E00F94F5F18FECC5
:10EE900091EE60E00F94F5F1662477244301CC5D98
:10EEA000DE4F19821882C452D140D401C301B695F5
:10EEB000A79597958795CA5DDE4F88839983AA8326
:10EEC000BB83C652D140CC5DDE4FA881B981C4520C
:10EED000D1401196CC5DDE4FB983A883C452D14096
:10EEE000CD0162E070E00F9434F2B0E2B093C6005E
:10EEF0008091C00086FFFCCF8091C0008064809329
:10EF0000C000EDE2E093C6008091C00086FFFCCF18
:10EF10008091C00080648093C000F0E2F093C6004E
:10EF20008091C00086FFFCCF8091C00080648093F8
:10EF3000C000CA5DDE4FE880F9800A811B81C6529D
:10EF4000D140BB27A12F902F8F2D0F940DF2CA5DBA
:10EF5000DE4F8881C652D1400F940DF2B0E2FB2EF5
:10EF6000F092C6008091C00086FFFCCF8091C00067
:10EF700080648093C0000DE30093C6008091C000C0
:10EF800086FFFCCF8091C00080648093C00010E2B7
:10EF90001093C6008091C00086FFFCCF8091C00016
:10EFA00080648093C0008BBEF3012791C65DDE4F65
:10EFB0002883CA52D140A22EBB24CC24DD2408943D
:10EFC000611C711C811C911C8BBEF3018791282E42
:10EFD0003324442455240894611C711C811C911C09
:10EFE0008BBEF3013791C55DDE4F3883CB52D140E4
:10EFF0000894611C711C811C911C8BBEF30147910C
:10F00000C45DDE4F4883CC52D140ADEFEA2EAFEF66
:10F01000FA2EAFEF0A2FAFEF1A2F6E0C7F1C801E57
:10F02000911E142D032DF22CEE24EA0CFB1C0C1D5A
:10F030001D1D0F940DF220E22093C6008091C000A8
:10F0400086FFFCCF8091C00080648093C000C65DC5
:10F05000DE4F8881CA52D1400F940DF230E23093D6
:10F06000C6008091C00086FFFCCF8091C000806404
:10F070008093C000C45DDE4F8881CC52D1400F9494
:10F080000DF240E24093C6008091C00086FFFCCFA5
:10F090008091C00080648093C000C55DDE4F888190
:10F0A000CB52D1400F940DF250E25093C6008091A4
:10F0B000C00086FFFCCF8091C00080648093C000B8
:10F0C0008FEFE8168FEFF80680E0080780E018075A
:10F0D00031F484E092EE60E00F94C2F1DFC0D80119
:10F0E000C7018070907CA070B0708050904CA040A0
:10F0F000B040D1F52FEF3FE340E050E0E222F322B1
:10F1000004231523CA5DDE4FA880B980CA80DB8046
:10F11000C652D140AE0CBF1CC01ED11EAA0CBB1CD7
:10F12000CC1CDD1C8EE092EE60E00F94C2F1BB2798
:10F13000A12F902F8F2D0F940DF28E2D0F940DF285
:10F1400030E23093C6008091C00086FFFCCF8091F2
:10F15000C00080648093C0004EE34093C60080915D
:10F16000C00086FFFCCF87C08EE09EEFA0E0B0E03D
:10F17000E822F9220A231B239CE0E91694E9F90608
:10F1800090E0090790E0190709F088C0C45DDE4FE0
:10F19000A881CC52D140EA2EFF2400E010E0102FCD
:10F1A0000F2DFE2CEE24C55DDE4FB881CB52D14031
:10F1B000EB0EF11C011D111DD601C501817090706F
:10F1C000A070B070DC0199278827E80EF91E0A1F8D
:10F1D0001B1F20EF30E040E050E0A222B322C42207
:10F1E000D52241E1AA0CBB1CCC1CDD1C4A95D1F7F1
:10F1F000EA0CFB1C0C1D1D1D81E090E0A0E0B0E0BE
:10F20000282239224A225B2235E1220C331C441C7D
:10F21000551C3A95D1F7E20CF31C041D151D57013E
:10F220006801AA0CBB1CCC1CDD1C85E192EE60E0E1
:10F230000F94C2F1C801AA27BB270F940DF2BB2778
:10F24000A12F902F8F2D0F940DF28E2D0F940DF274
:10F2500090E29093C6008091C00086FFFCCF809121
:10F26000C00080648093C000AEE3A093C60080918C
:10F27000C00086FFFCCF8091C00080648093C000F6
:10F28000C601AA27BB270F940DF2BB27AD2D9C2DDD
:10F290008B2D0F940DF28A2D0F940DF20F94DCF14B
:10F2A000CC5DDE4FE881F981C452D140F99709F471
:10F2B0004DCBF4E0EF2EF12C012D112D6E0C7F1CA7
:10F2C000801E911EF2CD83E093EE62E00F94F5F183
:10F2D0008AE192EE60E00F94C2F18091C00087FF56
:10F2E000FCCF1091C6001F751093C6008091C0001E
:10F2F00086FFFCCF8091C00080648093C0000F9493
:10F30000DCF1812F81548A3108F036C1163409F4BA
:10F3100095C0173490F4133409F44EC0143430F40B
:10F320001134F1F0123409F01DC130C0143409F465
:10F3300059C0153409F016C16BC01A3409F4C4C0A1
:10F340001B3438F4173409F48FC0183409F00AC19B
:10F35000A1C01B3409F4D2C01C3409F003C1E8C0B9
:10F360008FEF81B90DC082B1809582B980E090E0C5
:10F37000E0EDF7E03197F1F70196883C9105C1F790
:10F380008091C00087FFEFCF12B8EFC08FEF84B934
:10F390000DC085B1809585B980E090E0E0EDF7E0A3
:10F3A0003197F1F70196883C9105C1F78091C00033
:10F3B00087FFEFCF15B8D9C08FEF87B90DC088B1DF
:10F3C000809588B980E090E0E0EDF7E03197F1F7C3
:10F3D0000196883C9105C1F78091C00087FFEFCF6F
:10F3E00018B8C3C08FEF8AB90DC08BB180958BB9A7
:10F3F00080E090E0E0EDF7E03197F1F70196883C8E
:10F400009105C1F78091C00087FFEFCF1BB8ADC059
:10F410008FEF8DB90DC08EB180958EB980E090E0F0
:10F42000E0EDF7E03197F1F70196883C9105C1F7DF
:10F430008091C00087FFEFCF1EB897C08FEF80BBD1
:10F440000DC081B3809581BB80E090E0E0EDF7E0F6
:10F450003197F1F70196883C9105C1F78091C00082
:10F4600087FFEFCF11BA81C08FEF83BB0DC084B38C
:10F47000809584BB80E090E0E0EDF7E03197F1F714
:10F480000196883C9105C1F78091C00087FFEFCFBE
:10F4900014BA6BC08FEF809301010FC080910201FD
:10F4A00080958093020180E090E0E0EDF7E03197F5
:10F4B000F1F70196883C9105C1F78091C00087FF64
:10F4C000EDCF1092020151C08FEF809304010FC065
:10F4D0008091050180958093050180E090E0E0ED4A
:10F4E000F7E03197F1F70196883C9105C1F78091DB
:10F4F000C00087FFEDCF1092050137C08FEF8093DA
:10F5000007010FC08091080180958093080180E079
:10F5100090E0E0EDF7E03197F1F70196883C910536
:10F52000C1F78091C00087FFEDCF109208011DC088
:10F530008FEF80930A010FC080910B01809580931B
:10F540000B0180E090E0E0EDF7E03197F1F70196F4
:10F55000883C9105C1F78091C00087FFEDCF1092E4
:10F560000B0103C085E292EEEEC98091C00087FFD7
:10F57000FCCF8091C600EAC988E392EEE4C98CE131
:10F5800091EEE1C988249924933011F1943028F444
:10F59000913089F09230B8F408C0953061F195301F
:10F5A000F0F0963009F048C043C02B3109F042C951
:10F5B00091E06BE13FC96227C15DDE4F2883CF52E6
:10F5C000D14092E037C9B22FA0E0622793E032C960
:10F5D000822F90E0A82BB92B622794E02BC92E3004
:10F5E00009F039C3622795E0C05DDE4F19821882A9
:10F5F000C053D1401FC9E1E0F0E0EC0FFD1FC05D3A
:10F60000DE4F08811981C053D140E00FF11F2083E4
:10F610000F5F1F4FC05DDE4F19830883C053D14079
:10F6200062270A171B0709F005C9D80196E002C92D
:10F63000261709F010C303C0973009F0FBC87724E0
:10F640009981933109F412C19431C8F4963009F4C8
:10F65000D8C0973050F4923009F406C1933009F4C1
:10F660006DC0913009F059C253C0913109F477C08F
:10F67000923108F0BBC0903109F04FC2F5C098310B
:10F6800009F487C0993150F4953109F4EFC09531F0
:10F6900008F4C6C1963109F040C2C2C19A3109F4DA
:10F6A0006CC09A3108F491C09B3109F45BC09D3164
:10F6B00009F033C29D81903359F48F81882311F46E
:10F6C0009EE11CC0813011F091E018C098E916C08D
:10F6D000892F807591F0903539F4E0E0F0E089E011
:10F6E0008093570094910AC0983539F4E3E0F0E034
:10F6F00089E080935700949101C090E01A821B82A8
:10F700008D818C831D829E831F8227E030E009C299
:10F710001A8288E08B8381E48C8386E58D8382E581
:10F720008E8389E48F8383E5888780E589878FE5E9
:10F730008A8782E38B872BE030E0F3C18A818139AD
:10F7400041F0823941F0803911F48FE005C080E04A
:10F7500003C082E001C08AE01A828B8344C0772410
:10F76000739482C08D81882311F48EE12CC0813086
:10F7700011F081E028C088E926C01A82E1E0F0E0BB
:10F7800089E08093570084918B831C8224E030E0D1
:10F79000C8C18B81803589F48C81883039F4E2E0EE
:10F7A000F0E089E08093570084910DC0E0E0F0E044
:10F7B00089E080935700849106C0E3E0F0E089E09F
:10F7C0008093570084911A82DFCF8D81836C99E0FA
:10F7D000E1E0F0E0082E90935700E89507B600FCB2
:10F7E000FDCF1A821B8223E030E09BC180EC8A832C
:10F7F000CE5CDE4F188219821A821B82C253D1401E
:10F800008EC18A8190E0A0E0B0E0582F44273327D2
:10F8100022278B8190E0A0E0B0E0DC0199278827C7
:10F82000282B392B4A2B5B2B8D8190E0A0E0B0E098
:10F83000282B392B4A2B5B2B8C8190E0A0E0B0E089
:10F84000BA2FA92F982F8827282B392B4A2B5B2BCF
:10F85000220F331F441F551FC05EDE4F288339839C
:10F860004A835B83C052D1401A8259C13A81C95C34
:10F87000DE4F3883C753D140CA5CDE4F1882C6536F
:10F88000D1408B81C82EDD24CA5CDE4F488159816E
:10F89000C653D140C42AD52A933109F082C0CE5C28
:10F8A000DE4F88819981AA81BB81C253D1408050AB
:10F8B000904CA340B04030F583E0CE5CDE4FE88052
:10F8C000F9800A811B81C253D140F70100935B008C
:10F8D00080935700E89507B600FCFDCFCE5CDE4F65
:10F8E000088119812A813B81C253D14000501F4FAA
:10F8F0002F4F3F4FCE5CDE4F088319832A833B8313
:10F90000C253D140C05EDE4F488159816A817B81FC
:10F91000C052D140DE011B9631E08C9111962C91A2
:10F9200011971296C75CDE4F2883C953D140C85C3B
:10F93000DE4F1882C853D14090E0C85CDE4FE881AA
:10F94000F981C853D1408E2B9F2B0C01FA01609393
:10F950005B0030935700E89511244E5F5F4F6F4F67
:10F960007F4F0EEFE02E0FEFF02ECE0CDF1CC114F8
:10F97000D10499F685E0C05EDE4F088119812A81A5
:10F980003B81C052D140F80120935B008093570027
:10F99000E89507B600FCFDCF81E180935700E8951C
:10F9A00035C0C05EDE4F88819981AA81BB81C0527B
:10F9B000D140B695A795979587957C018601ABE0D8
:10F9C000AA2EB12CAC0EBD1E0BC0D5016D915D01F0
:10F9D000C7010F947FFE0894E11CF11C01501040F8
:10F9E0000115110591F7A60160E070E0440F551F65
:10F9F000661F771FC05EDE4FE880F9800A811B8199
:10FA0000C052D1404E0D5F1D601F711F1A82C05E33
:10FA1000DE4F488359836A837B83C052D1407FC0C5
:10FA2000FA80C55CDE4FF882CB53D140C65CDE4F16
:10FA30001882CA53D1408B81C82EDD24C65CDE4FAC
:10FA400008811981CA53D140C02AD12A1A828981DA
:10FA5000BE016D5F7F4F843121F59601C05EDE4FA0
:10FA6000E880F9800A811B81C052D1400BBFF701A9
:10FA700087919691DB018C9311969C936E5F7F4FDB
:10FA8000D801C7010296A11DB11DC05EDE4F88835B
:10FA90009983AA83BB83C052D14022503040F1F6F3
:10FAA00036C0C05EDE4F288139814A815B81C052F9
:10FAB000D1400894C108D108760100E010E0089414
:10FAC000C11CD11C0894E11CF11C011D111DE20E8A
:10FAD000F31E041F151F21BDBB27A52F942F832FB5
:10FAE00082BD2F5F3F4F4F4F5F4FF89A80B5DB01CC
:10FAF0008D93BD012E153F054007510761F7C05E8C
:10FB0000DE4F288339834A835B83C052D1409601FC
:10FB10002D5F3F4FFB01108204C080EC8A8322E0FE
:10FB200030E08BE18093C6008091C00086FFFCCF5F
:10FB30008091C00080648093C000C15DDE4FF88179
:10FB4000CF52D140F093C6008091C00086FFFCCF19
:10FB50008091C00080648093C000432F3093C60022
:10FB60008091C00086FFFCCF8091C00080648093AC
:10FB7000C000922F2093C6008091C00086FFFCCF6A
:10FB80008091C00080648093C0008EE08093C600A6
:10FB90008091C00086FFFCCF8091C000806480937C
:10FBA000C00065E1C15DDE4FE880CF52D1406E25D7
:10FBB00069276427FE01319610C090819093C6009A
:10FBC0008091C00086FFFCCF31968091C000806498
:10FBD0008093C0006927215030402115310569F715
:10FBE0006093C6008091C00086FFFCCF8091C0006A
:10FBF00080648093C00085B1805885B9772081F4F6
:10FC0000C15DDE4F0881CF52D1400F5FC15DDE4F35
:10FC10000883CF52D14090E0A0E0B0E00D941AF4F8
:10FC200027982F9880E090E020ED37E0F901319798
:10FC3000F1F7019684369105C9F700008091C00064
:10FC40008D7F8093C00081E180935700E895EE2777
:10FC5000FF270994FFCF90E00D941AF497FB092E2B
:10FC600007260AD077FD04D02ED006D000201AF443
:10FC7000709561957F4F0895F6F7909581959F4F08
:10FC80000895A1E21A2EAA1BBB1BFD010DC0AA1FDD
:10FC9000BB1FEE1FFF1FA217B307E407F50720F0F5
:10FCA000A21BB30BE40BF50B661F771F881F991F70
:10FCB0001A9469F760957095809590959B01AC01B9
:10FCC000BD01CF010895AA1BBB1B51E107C0AA1FAC
:10FCD000BB1FA617B70710F0A61BB70B881F991FED
:10FCE0005A95A9F780959095BC01CD010895F99991
:10FCF000FECF92BD81BDF89A992780B50895262F31
:10FD0000F999FECF1FBA92BD81BD20BD0FB6F89400
:0EFD1000FA9AF99A0FBE01960895F894FFCF63
:040000033000E000E9
:00000001FF
